:020000040800F2
:1000000000500020AD030008B5030008B703000846
:10001000B9030008BB030008BD030008000000008E
:10002000000000000000000000000000BF03000806
:10003000C103000800000000C3030008C503000856
:10004000C7030008C7030008C7030008C703000868
:10005000C7030008C7030008C7030008C703000858
:10006000C7030008C7030008C7030008C703000848
:10007000C7030008C7030008C7030008C703000838
:10008000C7030008C7030008C7030008C703000828
:10009000C7030008C7030008C7030008C703000818
:1000A000C7030008C7030008C7030008C703000808
:1000B000C7030008C7030008C7030008C7030008F8
:1000C000C7030008C7030008C7030008C7030008E8
:1000D000C7030008C7030008C7030008C7030008D8
:1000E000C7030008C7030008C7030008DFF814D0DF
:1000F00000F0D8FE00F06CF900F0BCFA00480047B0
:1001000069120008005000202DE9F04781464FF0A9
:100110000A0A82480068B8B90120804908600024B2
:1001200000207F4908600AE07E4840F8249050F89B
:1001300024007B490968084479490860641C0A2C3A
:10014000F2DB4846BDE8F0877648006874490968E4
:10015000081A73490860002406E07249601C51F8CF
:10016000200041F82400641C092CF6DB6D48C0F81F
:100170002490406A6A490968084469490860084649
:10018000006800F004FC07460022674B00F082FB89
:10019000054600F026FC04462046D3E74FF4E13143
:1001A000624801F093FC0021614801F05EFC614966
:1001B0005E485C3001F001FD7AE001215C4801F00D
:1001C00054FC4FF48C7003F0A7F95B4C204602F00E
:1001D00053FC0646594900F0B5FA0546584900F067
:1001E000B1FA584908600021514801F03EFC5548D9
:1001F000006800F0DDFB0546FFF786FF044600F0CF
:10020000B8FB5049086050494E48006800F038FC7F
:1002100015D84D494B48006800F08EFA49490860EE
:100220000846006800F0FCFB0646484A484B00F0D0
:10023000BFFA044600F007FC4649086002E00020CF
:10024000444908604348006800F0EAFB044622463F
:100250000B4641A135485C3001F0AFFC00BF00BF48
:1002600000BF00BF00BF00BF00BF474890F90000BB
:10027000401C05D13F222F49483944A002F040FDDF
:1002800000BF4148806800683F494968084201D082
:10029000012000E0002008B9012000E00020044611
:1002A0002146394801F0E1FB4FF07E5003F014F98C
:1002B00083E770B50023032202211C4801F04AFCA9
:1002C0000446384A384901F09FFD05212E4801F0C7
:1002D000BFFB0821164801F0BBFB174C002529463F
:1002E000204602F06BFB00BF70BD70B504460D46A2
:1002F00000BF94F90000401C05D135220D49483952
:1003000022A002F0FDFC00BF1DB1E168606808603A
:1003100002E021696068086070BD0000EC00002008
:10032000F000002064010020000024408C01002027
:100330001402002078350008F400002000404E45EB
:1003400000003041000100200000FA439A99999979
:100350009999C93FFC00002054686520637572724A
:10036000656E74206475737420636F6E63656E745C
:10037000726174696F6E2069733A2025342E31667C
:100380002075672F6D330A00000200206F626A2D0E
:100390003E70696E20213D202850696E4E616D656A
:1003A000294E430000000008791B000806488047DA
:1003B00006480047FEE7FEE7FEE7FEE7FEE7FEE74A
:1003C000FEE7FEE7FEE7FEE7BD170008ED000008C8
:1003D000042104A002F03CFA0349086003490860C4
:1003E000FFF78AFE3A747400A402002090020020F5
:1003F00038B505468DF800000C4608680023012238
:10040000694602F0ABFA10B14FF0FF3038BDE0683A
:10041000401CE060284638BD70B50446006802F014
:1004200003FA4FF0FF35002805DBE168206802F091
:1004300081FA002801DA284670BD002070BD10B591
:10044000431A934209D28318881803E010F8011D5B
:1004500003F8011D521EF9D210BD40EA01039B07AB
:1004600003D009E008C9121F08C0042AFAD203E029
:1004700011F8013B00F8013B521EF9D210BDD2B277
:1004800001E000F8012B491EFBD270470022F6E77D
:1004900010B513460A4604461946FFF7F0FF2046FA
:1004A00010BD421C10F8011B0029FBD1801A7047B7
:1004B00010B5002200E0521C835C8C5CA34201D189
:1004C000002BF8D1D8B2E1B2401A10BD30B50546C4
:1004D0000020034600E05B1C934205D2EC5CC85C44
:1004E000201A01D1002CF6D130BD00000FB400B5A8
:1004F0008DB010A909900B9000914FF0FF300A9039
:1005000000200C9005480690054807906A4609A807
:100510000F9900F02BFB0DB05DF814FB890B000860
:10052000A70B00082DE9FF5F1D464FF0FF3BD5E903
:10053000014691465F464FF00008A9697F1C01986B
:100540008847296A824688470028F6D11AF10100B7
:100550000CD024F4C064002E19DD600614D5BAF165
:100560002B0F09D0BAF12D0F0ED103E0584604B07D
:10057000BDE8F09F44F48064A9697F1C0198884716
:10058000761E8246002E02DDBAF1300F03D0B9F19B
:10059000000F26D032E0761EA96944F400747F1C57
:1005A000019888478246002E05DDBAF1780F06D003
:1005B000BAF1580F03D0B9F1000F10D01EE0B9F115
:1005C000000F02D0B9F1100F18D1761EA96924F4DA
:1005D00000747F1C019888478246102002E00820A2
:1005E00000E00A20814609E008FB0908761EA96997
:1005F00044F400747F1C019888478246002E05DD74
:100600004946504600F09DFA0028EDDAE969019864
:100610008847A00502D46FF00100A8E7E00727D1C2
:10062000600614D5600502D5C8F1000000E0404620
:10063000296801F104022A600968220501D50870C1
:1006400016E0220701D5088012E0086010E0286853
:1006500000F1040129600068210502D580F80080BE
:1006600006E0210702D5A0F8008001E0C0F8008074
:1006700038467CE770B5054C054D03E02068204402
:100680008047241DAC42F9D170BD0000FC3A00083F
:10069000003B0008F0B480EA0102D40F4200B2EB44
:1006A000410F02D20246084611464A0042D0C30D0D
:1006B000DDB2C1F3C752AD1A202D35DAC1F31601F0
:1006C00041F4000204B15242C5F1200602FA06F1DB
:1006D0002A411044B3EBD05F23D0C4B1012DA0EB6D
:1006E000C35009DCF0BC4FF0004202EAC35200F5EF
:1006F0000000DBB200F077BA400000F1807000EB40
:10070000C350A0F1807040EAD170490009E0490867
:1007100041EAC071A0EBC35000F50000400800EBB7
:10072000C350F0BC00F056BA6142012202EB410115
:10073000001BF6E7F0BC704781F00041AAE780F0AB
:100740000040A7E780EA010210B502F00043400034
:1007500026D04A0023D04FEA106101EB1261C0F3AA
:100760005600C2F3560240F4000042F40002A0FB1F
:100770000220A1F17F014FEA0040140401D000F1F2
:10078000010050EA124001D44000491EC2B20C06DA
:1007900004EBD010401C4008802A02D003E0002067
:1007A00010BD20F00100002900DA0020184310BD20
:1007B0002DE9FE4F81EA030404F0004421F00041DA
:1007C00000944FF0000B23F0004350EA010402D0E4
:1007D00052EA030404D10020014603B0BDE8F08FC3
:1007E000C3F30A54C1F30A552C44A4F2F334019420
:1007F000A0FB0254C1F3130141F48011C3F31303AE
:1008000043F4801301FB024400FB034E840A970A61
:1008100044EA815447EA8357A4FB076802958D0A8E
:1008200005FB07854FEA932C04FB0C542705029D1A
:100830004FEA065847EA1637B5EB08056EEB070C8A
:10084000870E920E47EA811742EA8312A7FB020144
:10085000B6EB0B0164EB00042B0D43EA0C335E187E
:1008600044EB1C50DA465146E7FB0201C5F3130482
:100870004FEA0B3343EA14534FEA0432019C43EA34
:100880000603A4F10C040294009CCDE900B400F02E
:10089000E4F9A2E72DE9F04D81EA030404F0004BEE
:1008A00021F0004514464FF0000A23F0004150EAC1
:1008B000050220D054EA01021DD0C5F30A570246B2
:1008C000C5F31303C1F31300C1F30A5640F48015B6
:1008D00043F48013A7EB0608101BD64608F2FD3838
:1008E00073EB050002D308F1010801E092185B41A7
:1008F000B8F1000F03DA00200146BDE8F08D0020BA
:100900004FF48011064684460EE0171B73EB050773
:1009100005D3121B63EB050306434CEA010C49089F
:100920004FEA300092185B4150EA0107EDD152EADC
:10093000030012D082EA040083EA0501084303D1D0
:1009400000224FF0004308E0101BAB4102D201220D
:10095000002302E06FF0010253101AEB06004CEB8B
:10096000085110EB0A0041EB0B01BDE8F04D00F01F
:1009700067B9C10F80EAE0700844CA0796230021D6
:1009800000F031B996230022114600F02CB90EB5C3
:10099000C10F80EAE0700844CA07002140F23343E7
:1009A0008DE80E000A460B4600F057F903B000BD73
:1009B00000F0004220F00040C10DC0F3160040F4EA
:1009C00000007F2901DA00207047962903DCC1F17D
:1009D0009601C84001E096398840002AF4D0404290
:1009E000704770B5C1F30A5201F000450024C1F30D
:1009F000130140F2FF3341F480119A4201DA0020E2
:100A000070BD40F233439A42A2F2334203DC5242B9
:100A100000F087F800E090402C43F1D0404270BDD8
:100A200000F0004230F000400AD0C10D01F56071C5
:100A3000C0F3160042EA0151C20840071143704753
:100A400000200146704701F0004330B421F000411E
:100A500050EA010206D00A0DA2F56072C1F313013B
:100A6000002A02DC30BC00207047440F44EAC10475
:100A7000C100E01830BC00EBC25000F0ABB8000081
:100A8000002801DBC0F10040002901DBC1F1004179
:100A90008842704730B50B460146002020220124D1
:100AA00009E021FA02F59D4205D303FA02F5491B3C
:100AB00004FA02F52844151EA2F10102F1DC30BD52
:100AC0002DE9F05F0546002092469B468846064683
:100AD000814640241BE0284641464746224600F016
:100AE00020F853465A46C01A914110D31146184671
:100AF000224600F0E9F92D1A67EB01084F4622461D
:100B00000120002100F0E0F917EB00094E41201E02
:100B1000A4F10104DFDC484631462A464346BDE8DD
:100B2000F09F202A04DB203A21FA02F000217047CE
:100B300021FA02F3D040C2F1200291400843194645
:100B400070473A2800D2303820F02002412A01D3E1
:100B5000A2F13700884201D34FF0FF307047000008
:100B6000026811441378016018467047D160044947
:100B700051610449116200211161114600F0CAB9A6
:100B8000610B00080B0F0008426842B1016811F8C0
:100B9000013B23B1521EC0E90012184670470121E3
:100BA000C160881E704742685AB1C368016843B982
:100BB00083688B4205D0491E521CC0E900120020F8
:100BC00070474FF0FF3070470048704758010020D1
:100BD000704770470029A8BF7047401C490008BFF4
:100BE00020F00100704710B4B0FA80FC00FA0CF05D
:100BF00050EA010404BF10BC704749B1CCF1200495
:100C000021FA04F411FA0CF118BF01212143084321
:100C1000A3EB0C01CB1D0106000A002BBEBF002078
:100C200010BC704700EBC35010440029A4BF10BC97
:100C30007047401C490008BF20F0010010BC7047FD
:100C400010B5002B08DA401C41F1000192185B41FD
:100C50001A4301D120F0010010BD2DE9F04D92465C
:100C60009B4611B1B1FA81F202E0B0FA80F2203273
:100C7000904600F029F904460F4640EA0A0041EA8E
:100C80000B0153465A46084303D120463946BDE876
:100C9000F08D114653EA010015D0C8F140025046CC
:100CA000FFF73FFF05460E4650465946424600F0C4
:100CB0000BF9084301D0012000E00020054346EA7B
:100CC000E0762C4337430A984FEA4453A0EB0800E0
:100CD0004FEAD4240A304FF0000244EA47544FEA66
:100CE000D72502D500200146D1E701051019694139
:100CF000DDE9084500196941BDE8F04DA0E72DE99F
:100D0000FE4F804681EA0300C00F0C46009021F0A0
:100D1000004123F00045B8EB0200A94105D240464E
:100D2000214690461C460B46024623F000401043E5
:100D300004D14046214603B0BDE8F08F270DC7F32C
:100D40000A00C3F30A510290401A0190402866DA63
:100D5000C3F3130040F4801B0098924620B1002397
:100D6000D2EB030A63EB0B0B01985946C0F140022A
:100D7000504600F0A9F806460D4650465946019ADD
:100D800000F0B1F810EB08006141002487EA11522D
:100D900084EAE7731A433BD0009A3AB3019A012AD6
:100DA0004FEA075210DC001B61EB02014FF00042DA
:100DB00002EA0752CDE90042001C41F5801132469B
:100DC0002B46FFF74AFFB6E7001B61EB0201001C50
:100DD00041F5801300185B412018A2F5001747EB7E
:100DE000030140EAD570B6196D4111E06D084FEA74
:100DF000360645EAC0754FEA0752001B61EB020157
:100E0000001C41F5801149084FEA3000001951419A
:100E100032462B4603B0BDE8F04FFFF711BF0098F4
:100E2000012240000023D0EB020263EBE073009844
:100E300021464FEAE074B8EB000061EB0401E9E7FA
:100E400083F000435BE781F0004158E7C1F30A52A9
:100E5000C1F3130140F2FF3341F480119A4202DAE8
:100E600000200146704740F233439A42A2F23342D7
:100E700002DC5242FFF755BE00F026B830B500291B
:100E800004DB4FF00044404264EB0101002B04DB23
:100E90004FF00044524264EB0303994208BF904272
:100EA00030BD0000064C074D06E0E06840F001034D
:100EB00094E8070098471034AC42F6D3FFF71AF9CC
:100EC000DC3A0008FC3A0008202A04DB203A00FA49
:100ED00002F1002070479140C2F1200320FA03F391
:100EE000194390407047202A06DBCB17203A41FA7D
:100EF00002F043EAE07306E041FA02F3D040C2F1A7
:100F000020029140084319467047C0B24FF4F05197
:100F100000F096B92DE9F34F8BB04FF0000801F1C6
:100F20000C000C464FF0010B46460DF1080A0190EB
:100F3000626901210198904705002DD0252D2CD004
:100F4000216A8847C0B16269012101989047216AEE
:100F500088470028F7D1411E62690198904700E058
:100F6000761CA1690B988847216A88470028F7D129
:100F7000E1690B988847DBE7A1690B98884707462A
:100F8000A84201D1761CD3E7E1690B9888477F1C02
:100F900002D1B8F1000F6FD045E1002762693D46EC
:100FA0003946019890472A2804D1626901210198A5
:100FB00090470125DFF884926269012101989047EA
:100FC000A0F130010A290AD24F45E5DC07EB870181
:100FD00000EB4107303FDFD445F01005ECE7E906B0
:100FE00001D46FF000476C280AD04C2814D0682830
:100FF00015D06A280DD074281CD07A281AD01DE08C
:1010000062690121019890476C2802D045F00405DF
:1010100014E045F002050DE045F020050AE06269A4
:10102000012101989047682802D045F0080505E0A5
:1010300045F400656269012101989047C4E90157B0
:1010400065283DD019DC582879D00CDC452837D0EC
:1010500004DC252826D0412831D131E046282FD084
:1010600047282CD12CE05B287FD0612828D063282A
:101070007BD0642823D159E0CFE06F2847D008DC2B
:1010800066281DD067281BD0692821D06E2816D16C
:1010900027E0702844D0732867D0752846D0782878
:1010A0000DD14CE0A1690B988847054625283FF4EF
:1010B00069AFE1690B9888476D1C3FF46AAFB2E0F5
:1010C00023466A466FF001000B99AFF300809DE064
:1010D00045F040006060A80723464FF0000235D479
:1010E0003DE0206800F1040121600068290501D578
:1010F00006701DE7290701D5068019E7A90704D561
:101100004FEAE671C0E9006112E7066010E745F0BA
:1011100040006060A80723464FF0080216D41EE086
:1011200040F60E0125EA0100606016E045F040003F
:101130006060A80723464FF00A0207D40FE045F08D
:1011400040006060A80708D5234610226FF0010018
:101150000B99AFF3008059E007E0234610226FF0AF
:1011600001000B99FFF7DEF950E04FF000094F4600
:101170004B46632802D05B2806D040E0E80601D445
:101180000120A06001273AE062690121019890479F
:101190005E2805D14FF001096269494601989047E0
:1011A000216939B900210B46524642F82130491CC9
:1011B0000829FADBB0B3216969B9C11700EBD16125
:1011C0004B110AEB830221F01F01411A0120136821
:1011D00088400343136062690121019890475D28AC
:1011E000E8D1B9F1000F09D00020514651F8202074
:1011F000D24341F82020401C0828F7DB02AB2246EE
:1012000000976FF001000B99AFF3008000280CDA13
:10121000401C08D1BBF1000F05D04FF0FF300DB0DE
:10122000BDE8F08FFFE74046F9E7E90701D108F193
:10123000010806444FF0000B7AE60000CCCCCC0C41
:101240007F2801D9002208E0064A02EB5002C007BD
:10125000127800D1120902F00F02012090400840DC
:10126000704700007439000810B501F07AFD01F0F4
:1012700077FDBDE81040FEF791BF002100F064BC8F
:101280000029816814BF41F0010121F00101816052
:10129000704701460020896811F0040F18BF012033
:1012A0007047C06C80B270470246002012680A4244
:1012B00018BF0120704701460020896811F0080F0F
:1012C00018BF012070470000426891F804C022F462
:1012D000807222F470220B6842EA0C221A434260A8
:1012E00082680B4B1A40D1E902C343EA0C0391F820
:1012F00005C042EA4C021A438260C26A097C22F4A9
:101300007002491EC9B242EA0151C1627047000031
:10131000FDF7F1FF30B4072409290DD9C568A1F103
:101320000A0C0CEB4C0C04FA0CF425EA040403FA46
:101330000CF32343C3600AE0056901EB410C04FA96
:101340000CF425EA040403FA0CF3234303611F237E
:10135000072A0CD2D0F834C0521E02EB820293400E
:101360002CEA030391401943416330BC70470D2AB6
:101370000CD2D0F830C0D21F02EB820293402CEA8C
:10138000030391401943016330BC7047D0F82CC06F
:101390000D3A02EB820293402CEA03039140194379
:1013A000C16230BC7047816841F0080181607047BC
:1013B0000029816814BF41F4A00121F4A0018160DB
:1013C0007047816841F00401816070472DE9F001A8
:1013D000CB78002203F00F0C13F0100F1CBF8B789A
:1013E00043EA0C0C0B780F260125002B18BF04686C
:1013F0001AD000BF0F8805FA02F31F409F420FD199
:10140000970006FA07F824EA08040CFA07F73C43A9
:10141000CF78282F08BF436102D0482F08BF03614F
:10142000521C082AE6D304600A88FF2A87BF446852
:101430000022BDE8F001704702F108030F8805FAA9
:1014400003F31F409F420FD1970006FA07F824EAE2
:1014500008040CFA07F73C43CF78282F08BF4361F4
:10146000CF78482F08BF0361521C082AE4D3446098
:10147000BDE8F0017047000070B4194A10F0004F49
:1014800014BFD3695368C0F303444FF4401C3CEAD3
:1014900000054FEA505C4FEA0C1C86B206FA0CFCC1
:1014A00016D010F4801F08BF23EA0C0303D00325D5
:1014B00005FA04F4A34343F07063002918BF4CEA13
:1014C000030310F0004F14BFD361536070BC70472A
:1014D000546823F0706324F070645460EDE70000FA
:1014E000000001402DE9F041184D0E4607462C68DA
:1014F0002868B0F1006F23D12146C1F10050AC063D
:101500008210002AC4BF3B22B2EBA00F04DCEC2205
:101510002046FEF794FF10E0086820605FF00100AD
:1015200004EB800351F8202044F8202001EB8002D6
:10153000801C52685A603B28F2D34FF0005028605C
:1015400004EB87000664BDE8F081000008ED00E0D0
:1015500003494A6822F44042104348607047000043
:1015600000100240044A0029D16914BF084321EA4F
:101570000000D0617047000000100240044A0029BA
:10158000916914BF084321EA000090617047000090
:1015900000100240254910B44A6812F00C03244A96
:1015A00018BF042B01D0082B01D0026015E04A6857
:1015B0004B6802F470124FF0020C13F4803F0CEBF6
:1015C000924203D04B6813F4003F03D0194B5A43A7
:1015D000026002E0164B5A4302604A680F2303EA96
:1015E0001212154B9A5CD0F800C02CFA02F242603D
:1015F000D1F804C0072404EA1C2C13F80CC022FA0A
:101600000CFCC0F808C0D1F804C004EADC2C13F8C4
:101610000C30DA40C2604968032303EA9131074B7A
:10162000595CB2FBF1F1016110BC7047001002403F
:1016300000127A0000093D0008010020040100208A
:1016400082B000210091019129490A6822F4803278
:101650000A600028086814BF40F4802020F480202D
:101660000860086840F480300860086800F40030C2
:1016700001900098401C0090019818B90098B0F5AE
:10168000A06FF2D1086810F4003004BF02B07047B8
:101690001848026842F010020260026822F0070255
:1016A0000260026842F002020260486820F47C1086
:1016B0004860486840F4823040F4E01048600868B0
:1016C00040F080700860086810F0007FFBD0486828
:1016D00020F003004860486840F002004860486815
:1016E00000F00C000828FAD1012002B07047000079
:1016F000001002400020024010B5002450B1012823
:101700000CD0022810D0032812D00B4801F00EFA9A
:10171000204610BD0121094C042002E0084C0121A3
:101720000820FFF72BFFF3E70121064C1020F8E714
:101730000121054C2020F4E788380008000801400A
:10174000000C014000100140001401401649486897
:10175000164A10F00C03164818BF042B01D0082BB2
:1017600001D0026015E04A684B6802F470124FF035
:10177000020C13F4803F0CEB924203D04B6813F43D
:10178000003F03D00B4B5A43026002E0074B5A4321
:1017900002604968084AC1F30311515C026822FAE9
:1017A00001F10160704700000010024000127A0051
:1017B0001C01002000093D002001002008B52C4B31
:1017C000186840F00100186058682A4908405860BD
:1017D000186820F4102020F080701860186820F439
:1017E00080201860586820F4FE0058604FF41F00F5
:1017F00098602149D80308600120FFF721FF0028E5
:1018000018BF08BD0020FFF71BFF002818BF08BD48
:10181000002000901948016841F010010160016842
:1018200021F007010160016841F002010160586880
:1018300020F47C105860586840F4806040F46010D8
:101840005860186840F080701860186810F0007FC9
:10185000FBD0586820F003005860586840F0020040
:101860005860586800F00C000828FAD108BD000044
:10187000001002400000FFF808ED00E000200240E8
:10188000C943018270470029018814BF41F001015A
:1018900021F0010101807047038A002280890B42F8
:1018A00000EA01001CBF0028012210467047002AF0
:1018B000828914BF114322EA010181817047818628
:1018C0007047000010B40288234BDFF890C09842A4
:1018D00018BF604511D0B0F1804F1CBFA0F180440B
:1018E000B4F5806409D0A0F18044B4F500641CBF55
:1018F000A0F18044B4F5406403D14C8822F070021A
:101900002243A0F18044B4F580541CBFA0F1804470
:10191000B4F5A05403D0CC8822F440722243028054
:101920008A8882850A880285984218BF60450DD052
:10193000A0F18042B2F5A0321FBFA0F18042B2F503
:10194000A232A0F18042B2F5A43201D1097A018617
:101950000121818210BC7047002C014000340140FD
:101960004FF6FF71818000210180C18041800172AA
:1019700070470029818914BF41F4005121F40051BE
:10198000818170470246002012880A4218BF012058
:101990007047000030B50446008A85B00D464CF60D
:1019A000FF710840E98808432082A0894EF6F311B0
:1019B0000840A9882A8911436A8910430843A081F5
:1019C000A08A4FF6FF410840A9890843A0826846D3
:1019D000FFF7E0FDA4F18040B0F59C300CBF039808
:1019E0000298A18911F4004F00EBC00101EB001037
:1019F000296814BF49008900B0FBF1F0114A6FF06B
:101A0000180CA2FB0031490909010B0903FB0CF377
:101A100000EB8300A38913F4004F4FF0320314BF8F
:101A200003EBC00003EB0010A2FB00204FEA5010B4
:101A300014BF00F0070000F00F000843208105B03C
:101A400030BD00001F85EB51C1F308018180704754
:101A500070B504460D4614212046FEF717FD2946B1
:101A6000204601F0F1F8204670BD70B504460D46E1
:101A700000BF29462046FEF738FC00BF204670BD57
:101A800010B4094901600021084B10228C4600BFA8
:101A900053F82140844208BF43F821C0491C521E1C
:101AA000F6D110BC70470000BC39000828020020A5
:101AB00010B50C46001D01F0B5FB204610BDC1EB72
:101AC000C10100EB8100203000F032B870B504464F
:101AD0000D46001D01F0BAFAA56570BD70B50E4641
:101AE00010490160002141608160C1600161416174
:101AF0008161C161154602231C220B49203000F090
:101B00009CF9A0F120044FF41650A0652A463146F6
:101B1000201D01F0CDFA22460449201D01F076FB7C
:101B2000204670BDE83900087B120008BF1A000883
:101B3000016801B108474368002B08BF704700F1F6
:101B400008018269184610470022426082610160E4
:101B50007047000010B51C46FFF7C0FF21465C30FF
:101B600000F03AF8034940F85C1D4C310166343905
:101B7000C16510BDF839000810B55C3000F04EF8B2
:101B80005C3810BD0020704700207047002070476F
:101B90002DE9F0418D180F4606460C46A94209D0A2
:101BA000306814F8011B426A30469047401C18BF49
:101BB000AC42F5D1E01BBDE8F0810FB470B504462E
:101BC00006AD4069FEF728FC2A466069059900F0D9
:101BD0000FF970BC5DF814FB10B584B000F07AF812
:101BE00004460B482060343060600020606122466B
:101BF00008A1684600F0E8F807A1684600F064F91B
:101C000000216061AFF3008004B0204610BD0000E9
:101C1000543A00083A257000772B000010B50446AE
:101C20000548206034306060606900F04AF9204661
:101C3000BDE8104000F060B8543A0008007B7047DF
:101C400070B506460B480D46046884B1A06858B1CB
:101C50002A463146FEF73AFC30B9A068FEF721FC6F
:101C6000A84201D1204670BD6468002CEED100204E
:101C700070BD00004C010020064B03600023C0E94A
:101C800001310273002908BF704703490A684260A6
:101C900008607047983A00084C0100200B49016029
:101CA0008168002908BF7047094A1168814202BF54
:101CB0004168116070474A68824203D011465268F9
:101CC0008242FBD142684A6070470000983A00089F
:101CD0004C01002010B5064A40F8042B0022FFF703
:101CE000CBFF044940F8041D2C31416010BD0000B9
:101CF000BC390008A83A000810B5001DFFF7CEFF58
:101D0000BDE81040001FFFF7BBBE10B50446406899
:101D100028B1FFF793FF012804BF606810BD0020C1
:101D200010BD10B50446406810B1FFF787FF08B139
:101D3000002010BD6068002818BF001F10BD40685B
:101D4000002818BF0120704710B54068002808BF60
:101D500010BDFFF773FF00280CBF0120002010BD4D
:101D60000068704710B50446002020606060087865
:101D70002F280DD1487858B14B1C002123602268D0
:101D800010782F2806D038B1491C501C2060F6E787
:101D9000204610BD501C20601846FFF751FF6060C0
:101DA000204610BD5C38FFF783BE00000FB402462A
:101DB00010B504A9034B039800F078F910BC5DF846
:101DC00014FB0000F10300080FB4084B10B504A980
:101DD00002AA039800F06AF9044602A9002000F064
:101DE00008FD204610BC5DF814FB0000F327000836
:101DF00030B414460D4602462146284630BC014BFD
:101E000000F054B9F10300082DE9F041074690466F
:101E10000E460025102000F03DFF04000BD0C4F852
:101E20000C80C4E90176FEF7CFFE016821600460F2
:101E30002846BDE8F0810125FAE72DE9F0411C466E
:101E400017460E00804606D0054602E02846B047F9
:101E50003D44641EFAD24046BDE8F0812DE9F041D0
:101E60000646FEF7B1FE804613E026B1E068B042B8
:101E700001D025460EE020682860D4E90101D8F899
:101E800000708847204600F06DFED8F80000B84288
:101E900000D045462C68002CE7D1BDE8F081002039
:101EA000FEF797BE02E008C8121F08C1002AFAD147
:101EB00070477047002001E001C1121F002AFBD1CA
:101EC0007047006800F09ABC70B506460D461420B5
:101ED00000F0E0FE040009D01421FEF7D7FA2246F4
:101EE00029463046BDE8704000F0B0B8002070BD13
:101EF0002DE9FF5FDDE90220010DDDF838B0024376
:101F000010D10F9801244CA2012808D0002100987C
:101F10000F9BC0E90021C0E90243BDE8FF9F6FEAC3
:101F20000B01F4E7A1F2FF3144F6105041430D14C8
:101F30000F9801280ED0A5EB0B00401C4FF00004B9
:101F40003E4EDFF8FC90B0F1000AA04605DACAF177
:101F5000000717E0CBF10000F0E7074612E0F807B2
:101F600007D02246334640464946FEF721FC8046CC
:101F700089462246334610461946FEF719FC0446A8
:101F80000E467F10002FEAD1DDE90201BAF1000F01
:101F900042464B4602DAFEF70BFC01E0FEF77AFC04
:101FA00004460E460022274BFEF768FF03D84FF089
:101FB000FF30014607E00022234B20463146FEF762
:101FC0009EFEFEF743FF102409E0002C0ADB0A22E4
:101FD0000023FEF775FD019B30321A55641E50EA4E
:101FE0000102F2D1641C019AC4F1110314440F9A46
:101FF000012A09D00122084301D15B450FDD4FF0D2
:10200000000205F101050DE0084303D1A3EB0B0528
:102010006D1E09E000204FF0110B0F9088E701DAE8
:1020200000226D1E002A83D000980F99C0E902316A
:10203000C0E9004571E700003000000000002440C6
:102040000000F03F0000F0430000E03F70B506469E
:10205000106815460C4608B100F0D0FB14F8010BCF
:10206000612808D0722802D077281CD101E0002115
:102070000EE004210CE008210AE0641C2B2802D0A9
:10208000622810D102E041F0020101E041F00101BB
:1020900020780028F1D1304600F0DAFB411C02D054
:1020A0002860284670BD002070BD00002DE9FF4F5C
:1020B00095B09B4689460646002512E2252878D130
:1020C0000024761CF94A2746012105943378203BE9
:1020D00001FA03F0104202D00443761CF6E7307890
:1020E0002A2811D06FF02F033078A0F13002092A8E
:1020F00016D8059A44F0020402EB820203EB420276
:102100001044761C0590EFE759F8042B0592002A3D
:1021100003DA504244F40054059044F00204761C63
:1021200030782E2816D116F8010F44F004042A281E
:102130000DD06FF02F023078A0F13003092B09D8B1
:1021400007EB870302EB4303C718761CF3E759F844
:10215000047B761C30786C280FD006DC4C2817D016
:1021600068280DD06A2814D104E0742810D07A2889
:102170000FD10DE044F400140AE044F4801401E0AF
:1021800044F440147278824202D1761C04F5801423
:10219000761C307866280BD013DC582877D009DC01
:1021A000002875D04528F6D04628F4D047281AD103
:1021B0009FE118E0632835D0642879D0652812D1D2
:1021C00097E1702873D008DC6728F1D069286FD0B8
:1021D0006E280DD06F2806D1B5E073282CD0752855
:1021E00075D0782874D05A46179990476D1C76E1BF
:1021F000C4F30250022809D003280DD0D9F80010EA
:1022000004280DD00D6009F1040968E1D9F8001027
:10221000EA17C1E90052F6E7D9F800100D80F2E79D
:102220000D70F0E719F8041B8DF8001000208DF8F0
:102230000100EA46012003E059F804AB4FF0FF30FB
:1022400061074FF0000102D40DE008F1010188465A
:10225000B9420FDA8045F8DB1AF808100029F4D1EA
:1022600008E008F1010188468142FADB1AF80810FB
:102270000029F6D105985B46A0EB080721463846B1
:10228000179A00F09EFA284400EB080507E04DE09D
:102290002BE10DE01AF8010B5A4617999047B8F157
:1022A0000108F7D25B4621463846179A14E142E00E
:1022B0000A220092C4F302524FF0000A022A08D008
:1022C00059F804CB032A4FEAEC710AD00DE029E05B
:1022D0002AE009F1070121F00702F2E802C1914664
:1022E00009E00FFA8CFC4FEAEC71042A03D14FFA93
:1022F0008CFC4FEAEC71002907DA0A460021DCF178
:10230000000C61EB02012D2202E0220504D52B22F4
:102310008DF80420012203E0E20701D02022F7E734
:10232000904653E00A2102E010220DE010214FF008
:10233000000A00910BE010224FF0000A44F0040460
:102340000827009203E008224FF0000A0092C4F32D
:102350000252022A05D059F804CB0021032A08D0E2
:1023600009E009F1070121F00702F2E802C19146F4
:1023700005E01FFA8CFC042A01D10CF0FF0C4FF091
:102380000008220722D5702827D0009B83F0100375
:1023900053EA0A0309D15CEA010206D030228DF823
:1023A00004208DF8050002229046009B83F008036C
:1023B00053EA0A030AD15CEA010201D1620705D59A
:1023C00030228DF804204FF001087F1E582809D0D4
:1023D00037A003900EA8029013E040228DF804204D
:1023E0000122E1E737A0F4E753466046009AFEF782
:1023F00067FB84460398825C0298A0F1010002907A
:1024000002705CEA0100EFD1029806A9A1EB00007E
:1024100000F1200A600702D524F4803400E001278F
:10242000574502DDA7EB0A0000E0002000EB0A019F
:10243000009005984144A0EB01000590E00306D40C
:102440005B462146179A059800F0BBF90544002722
:1024500006E001A85A46C05D179990476D1C7F1C85
:102460004745F6DBE0030CD55B462146179A0598F5
:1024700000F0A7F9054404E030205A461799904728
:102480006D1C0099481E00900029F5DC08E00298B8
:1024900002995A460078491C0291179990476D1C81
:1024A000BAF10001AAF1010AF1DC6BE1092801008F
:1024B00030313233343536373839616263646566BA
:1024C000000000003031323334353637383941427C
:1024D000434445460000000000F060F9054406F161
:1024E0000106307800287FF4E9AD19B02846BDE830
:1024F000F08F620700D4062709F1070222F0070CCB
:10250000FCE80223E14603F000485FEA080C02D031
:102510000FF27C2C0DE05FEA045C02D50FF2742C04
:1025200007E05FEAC47C02D00FF26C2C01E0AFF24E
:10253000700C4FF0FF3823F00043CDF850C06528F1
:102540000CD006DC452809D046281DD047283ED1AE
:102550003EE0662818D0672839D139E00021112FD4
:1025600001DB112000E0781CCDE9000106A90EA8CE
:10257000FFF7BEFCDDE90F010E9A039100210092E6
:1025800007F1010A04914EE04FF000400097CDE9B9
:10259000011006A90EA8FFF7ABFCDDE90F020392BC
:1025A0000E9B11990022DDF80CA00093049219B93A
:1025B00007F1010100EB010AB7EB0A0004D4C0F1F6
:1025C000FF3007F1010A0490AAEB0700019046E0F2
:1025D000012F00DA01270021112F01DD112000E079
:1025E0003846CDE9000106A90EA8FFF781FCDDE918
:1025F0000F010E9A0391002104910092BA4621071F
:102600000CD40399514500DA8A46BAF1010F05DD71
:10261000009AAAF10101515C302908D0B84202DACF
:1026200010F1040F06DA0121CDE9011017E0AAF13B
:102630000101E9E7002805DC049901440491AAEBB3
:10264000000102E0411C514500DD8A460499A0EBDF
:10265000010000F1010001904FF0004002902007BE
:1026600004D40198504501DBCDF8048000208DF89A
:102670004F0002980DF14F07B0F1004F25D02B20ED
:102680000E9002984FF0020800280CDA40420290A7
:102690002D200E9007E00A210298FEF7FBF9303159
:1026A000029007F8011DB8F10001A8F10108F2DC61
:1026B00002980028EFD1791E0E980870307800F04B
:1026C000200040F0450007F8020D12A8A0EB07001B
:1026D00000F107081498007800B1012000EB0A010E
:1026E000019801EBE07105984144A0EB0100A0F1D5
:1026F00001000590E00306D45B462146179A059831
:1027000000F05FF805441498007820B15A461799F4
:10271000904705F10105E00323D55B462146179A52
:10272000059800F04EF805441BE00498002807DBEC
:10273000DDE90301884203DD0098405C179901E060
:10274000179930205A46904704986D1C401C0490FD
:102750000198401E019004D12E205A4617999047A7
:102760006D1CBAF10001AAF1010ADEDC05E017F8E0
:10277000010B5A46179990476D1CB8F10001A8F15A
:102780000108F4DC5B462146179A0598A4E6000090
:102790002D0000002B000000200000002DE9F0417A
:1027A000044600251E461746880405D406E039462F
:1027B0002020B04705F10105641EF8D52846BDE884
:1027C000F0812DE9F041044600251E469046C803DD
:1027D00001D5302700E02027880405D506E04146D2
:1027E0003846B04705F10105641EF8D52846BDE816
:1027F000F0810A68531C0B60107070470328BCBF3F
:10280000002070470749002201EB800151F80C0CB1
:1028100041F80C2C002804BF4FF0FF3070470168CE
:1028200049680847280200200328BCBF00207047E1
:10283000064901EB800050F80C0C002804BF4FF053
:10284000FF307047016849690847000028020020EE
:10285000F0B50E4683B0044632A1FDF729FE0028EC
:102860001CBF0025304F06D057F8250048B16D1C1D
:10287000102DF9D347E02D490868421C0A6003B0C7
:10288000F0BD102D3FD220783A2811D0214668465D
:10289000FFF768FA6846FFF752FA002833D0684617
:1028A000FFF752FA0028684609D0FFF73AFA23E00A
:1028B0006A461FA12046FDF719FE00981CE0FFF7AD
:1028C00024FA00B316F0020F18BF02241FD000BF75
:1028D00016F00C0F18BF44F4007416F0040F18BF64
:1028E00044F4806406466846FFF73AFA01463068C9
:1028F000224683683046984700281FBF47F82500C6
:10290000E81C03B0F0BD4FF0FF3003B0F0BD16F08F
:10291000040F18BF0124DBD116F0080F14BF0924DF
:102920000024D5E73A747400280200201801002022
:102930003A2570000328BCBF00207047064A02EB0E
:10294000800050F80C0C002804BF4FF0FF30704797
:1029500002681369002218472802002070B5144647
:102960000E46032813DA1248006820B90322022118
:10297000104800F09DFB0025002C06D9715D0D4824
:1029800000F050FC6D1CAC42F8D820460DE00A491E
:1029900001EB800050F80C0C002804BF4FF0FF3012
:1029A00070BD01680B6831469847201A70BD000061
:1029B00034010020740200202802002030B50D46AA
:1029C000044685B02349284600F0E6FA2060401C02
:1029D00004D14222204921A000F092F91D49284645
:1029E00000F008FB23482571016800291CBF05B0D1
:1029F00030BD012505602468E803FEF7A9FD01212B
:102A00004802FEF7BBFD00214FF460208DF8041052
:102A1000CDE9020100918DF805108DF8105069463E
:102A20002046FEF751FC01212046FEF729FC2046F6
:102A3000FEF7B9FC2046FEF73EFC0028FAD12046FE
:102A4000FEF7BFFC2046FEF724FC0028FAD105B0B3
:102A500030BD0000CC350008983600086F626A2D42
:102A60003E61646320213D20284144434E616D65F1
:102A7000294E43003001002010B5046890F904008D
:102A80000021102808BF082135D007DC082823D2F0
:102A9000DFE800F0312426282A2C2E30222808BF17
:102AA0000C2128D00CDC112808BF092123D02028B4
:102AB00008BF0A211FD0212808BF0B211BD00BE023
:102AC000232808BF0D2116D0242808BF0E2112D0BC
:102AD000252808BF0F210ED000201EE001210AE0AA
:102AE000022108E0032106E0042104E0052102E0C0
:102AF000062100E0072101231A462046FEF70AFCC2
:102B000001212046FEF754FC02212046FEF7CCFBB3
:102B10000028F9D02046FEF7C4FBFDF733FFBDE8DF
:102B200010400149FDF70EBE010880390FB404487A
:102B300010B503AA0299FFF75BF9012000F002F833
:102B4000A402002004460548FDF766FC0448FDF792
:102B500063FC002C18BF00F0FBF8FEE79002002099
:102B6000A402002010B5002821D0114B001F002224
:102B7000196803E0814203D80A4649680029F9D15F
:102B800052B11368841A9C4204D100681844106042
:102B9000104602E0506000E0186039B102680B1A7C
:102BA000934203D10B681A4402604968416010BD2A
:102BB0005C01002070B5044690F900000D46401CF1
:102BC00004D1472209490AA000F09AF894F90000BC
:102BD000012D05D0BDE870404FF4806100F0C4B80D
:102BE000BDE870404FF4805100F0BEB814390008C1
:102BF0006F626A2D3E70696E20213D202850696EFB
:102C00004E616D65294E430070B5054601700C4656
:102C1000481C08BF70BDC4F30310FEF76DFD0646E7
:102C20004FF48061204600F09FF804F00F0001216E
:102C300001FA00F0686006F10800A8600830E8605A
:102C4000001D286170BD000070B50D4604460026C9
:102C5000FFF7DAFF681C08BF70BD94F90000401C44
:102C600005D109493522A1F1180000F049F8216980
:102C70006068086001212046FFF79CFF314620462E
:102C8000BDE8704000F002B80438000890F9000078
:102C900000F0EAB8F0B50B30154D20F00701002424
:102CA000144A0FE003688B420BD38B4205D95E1A9E
:102CB00043184768C3E9006700E04368136002C037
:102CC00004E0021D10680028ECD12046002802D143
:102CD000286808B10020F0BD064A07481060074A7E
:102CE000121A22F00702C0E9002401202860D7E769
:102CF000600100205C010020BC020020004C00208C
:102D000008B500920B46024603A11048FFF74EF8A3
:102D1000BDE8084000F01CB86D6265642061737303
:102D20006572746174696F6E206661696C65643A7E
:102D30002025732C2066696C653A2025732C206C45
:102D4000696E65202564200A00000000A4020020AE
:102D500072B6962000F0D2FB962000F0CFFBF8E789
:102D60007047FEF7F3BC00002DE9F84305460C461A
:102D7000401C04D153222E492EA0FFF7C1FF271279
:102D8000E6B2C5F30310002405F00F08002833D085
:102D9000012835D0022839D003283BD02A48FFF734
:102DA000C5FE01210846FEF7E9FB701E092805D281
:102DB0002648012150F82600FEF75EFB012000FAAC
:102DC00008F0ADF800008DF8037003208DF80200C4
:102DD00069462046FEF7FAFA1D480D2D22D00E2D29
:102DE00008BF01211AD00F2D19BF132D142D012159
:102DF000184813D0BDE8F8830121174C042002E0E5
:102E0000164C01210820FEF7B9FBCAE70121144C3A
:102E10001020F8E70121134C2020F4E7FEF72CFBEB
:102E2000BDE8F8830121FEF727FBBDE8F883000029
:102E3000A438000870696E20213D202850696E4E2C
:102E4000616D65294E43000088380008603800082D
:102E5000000430000002300000080140000C014076
:102E60000010014000140140F8B504460E46401C15
:102E700004D17E222F4930A0FFF742FFC4F3031094
:102E800004F00F050024C0B101281AD002281ED07A
:102E9000032820D02D48FFF749FE2046002E08BF0A
:102EA000F8BD0321012E08BF482218D0022E08BF0A
:102EB000282214D0032E1ED013E00121244C04201C
:102EC00002E0244C01210820FEF758FBE5E7012130
:102ED000214C1020F8E70121204C2020F4E78DF848
:102EE00003200122AA40ADF800208DF802106946A7
:102EF000FEF76CFAF8BD0422082D0CD2D0F800C001
:102F0000AB0099401CEA010F08BFF8BD01689A4068
:102F100011430160F8BDD0F804C06B07DB0E994087
:102F20001CEA010F08BFF8BD41689A401143416097
:102F3000F8BD0000A438000870696E20213D2028EB
:102F400050696E4E616D65294E4300008838000857
:102F500000080140000C0140001001400014014035
:102F6000884208BF7047421C04BF0846704710B52E
:102F7000491C08BF10BD03A0FFF7D8FD4FF0FF307C
:102F800010BD000070696E6D6170206D69732D6DEC
:102F9000617463680000000010B5421C04BF4FF06C
:102FA000FF3010BD91F90020521C0BD091F9002088
:102FB000824203D14C68601C09D105E011F90C2F45
:102FC000521CF3D14FF0FF3402A0FFF7AFFD2046B3
:102FD00010BD000070696E6D6170206E6F742066A8
:102FE0006F756E6420666F722070657269706865B7
:102FF00072616C0010B50446401C08BF10BD91F909
:103000000000401C12D000BF91F90000A04209D17D
:1030100089682046FFF7A8FE2046BDE81040002141
:10302000FFF722BF11F90C0F401CEDD1BDE8104095
:1030300001A0FFF77BBD0000636F756C64206E6FAD
:10304000742070696E6F75740000000030B585B033
:1030500081600568044600212846FEF78AFCA068C6
:103060000090A089ADF80400208AADF80600A08A7F
:10307000ADF808000020ADF80C0094F91900401CD0
:1030800004BF0820ADF80A0007D094F91800401CCE
:103090000CBF04200C20ADF80A0069462846FEF754
:1030A00079FC01212846FEF764FC05B030BD000024
:1030B0002DE9F0430F46044685B01646464938468A
:1030C000FFF76AFF054645493046FFF765FF0146B1
:1030D0002846FFF745FF2060401C04D16422404988
:1030E00040A0FFF70DFE20680025A0F18041B1F55A
:1030F0009C3104D101218803FEF740FA6560DFF8B6
:10310000008120684FF00109404505D101214804A4
:10311000FEF728FAC4F804902068A0F18041B1F5C8
:10312000904105D101218804FEF71CFA022060605D
:1031300029493846FFF75EFF28493046FFF75AFF16
:103140004FF41650C4E9020525616561277666765D
:10315000266800213046FEF70CFCA0680090A0898C
:10316000ADF80400208AADF80600A08AADF808008A
:10317000ADF80C5094F91900401C04BF0820ADF8BC
:103180000A0007D094F91800401C0CBF04200C2042
:10319000ADF80A0069463046FEF7FCFB01213046D7
:1031A000FEF7E7FB206840451CBF05B0BDE8F08393
:1031B0001448C0F80090144894E80E1000F10C0573
:1031C000A5E80E10D4E90412A3694362C0E907120E
:1031D00005B0BDE8F0830000FC3600084437000865
:1031E0008C3700086F626A2D3E7561727420213D34
:1031F0002028554152544E616D65294E4300000010
:10320000004400403401002068020020034B596054
:103210004068034941F82020704700003401002035
:103220006802002070B506680D46044680212068BB
:10323000FEF7A8FB0028F9D0A9B23046BDE87040DF
:10324000FEF702BC70B51F4806881F4D01212846B5
:10325000FEF722FB1D4C012806D101212846FEF76E
:103260000FFBA068401CA06002212846FEF714FB5B
:10327000012818BF70BD02212846FEF701FB2088F7
:1032800058B121882846FEF71AFB01220221284660
:10329000FEF70DFB0020208070BDE06870B14FF696
:1032A000FF712846FEF70BFB012202212846FEF79C
:1032B000FEFA2680E068401EE06070BDBDE8704008
:1032C00000F014B824080040000800403C01002031
:1032D00002210148FEF7D4BA000800400022022172
:1032E0000148FEF7E4BA00000008004010B5FFF7FF
:1032F000EFFF0E4C206870B100F01AF821680A68E0
:10330000101A00280BDCC86820606268002A1CBF05
:1033100088689047EEE7BDE81040FFF7DFBF4968D7
:10332000BDE81040104600F055B8000050010020E4
:1033300030B5214C83B0606800282ED101200146B1
:1033400060600420FEF70EF96846FEF709FB4FF6B1
:10335000FF70ADF80400194819491A4D0068B0FB18
:10336000F1F0401EADF800000020ADF80600ADF809
:10337000020069462846FEF7A5FA012211462846B2
:10338000FEF795FA10491E20FEF7ACF80F49E80445
:10339000086001212846FEF776FAA0680C4A1188D9
:1033A00001EB0041A068138803EB0040884298BFFE
:1033B0000146F7D903B030BD3C0100201C010020BC
:1033C00040420F00000800404532000800E100E0E4
:1033D000240800402DE9F041384C80460026606802
:1033E000374D84B04FF6FF7700282AD101200146DF
:1033F00060600420FEF7B6F86846FEF7B1FA31487F
:10340000ADF8047030490068ADF80660B0FBF1F02B
:10341000401EADF80000ADF8026069462846FEF790
:1034200051FA012211462846FEF741FA27491E208B
:10343000FEF758F82649E804086001212846FEF7FF
:1034400022FAA068234B198801EB0042A068198872
:1034500001EB0041914298BF0A46F7D91888A8EBC2
:103460000101002904DC04B0BDE8F041FFF73EBFD4
:103470000A14E260218021883F1A8F420ED32188EE
:10348000084481B22846FEF71AFA01220221284692
:10349000FEF70DFA268004B0BDE8F0814FF6FF710B
:1034A0002846FEF70CFA012202212846FEF7FFF912
:1034B0002088C01B208004B0BDE8F0813C010020C2
:1034C000000800401C01002040420F004532000867
:1034D00000E100E02408004070B50749FDF732F92B
:1034E000FDF766FA0446FFF723FF0546FFF720FFC6
:1034F000401BA042FAD370BD0024744970B54FF44C
:103500007A7100FB01F5FFF713FF0446FFF710FF88
:10351000001BA842FAD370BD70B50546FFF708FF3F
:103520004FEA0004FFF704FF001BA842FAD370BD66
:103530006D6265642F5441524745545F4E55434C6C
:10354000454F5F4631303352422F54415247455424
:103550005F53544D2F5441524745545F4E55434C91
:10356000454F5F4631303352422F6770696F5F6F4E
:10357000626A6563742E68002A2A2A2A2A2A2A2A5D
:103580002A2A2A2A2A2A2A2A2A2A2A2A2A2A2A2A9B
:103590002A2A2A2A2A2A2A2A2A2A2A2057617665AA
:1035A0005368617265202A2A2A2A2A2A2A2A2A2A64
:1035B0002A2A2A2A2A2A2A2A2A2A2A2A2A2A2A2A6B
:1035C0002A2A2A2A2A2A2A2A2A0A00000000000077
:1035D0000024014000000000010000000024014020
:1035E0000000000002000000002401400000000074
:1035F000030000000024014000000000040000005F
:1036000000240140000000000500000000240140EB
:10361000000000000600000000240140000000003F
:10362000070000000024014000000000100000001E
:1036300000240140000000001100000000240140AF
:1036400000000000200000000024014000000000F5
:1036500021000000002401400000000022000000C2
:10366000002401400000000023000000002401406D
:1036700000000000240000000024014000000000C1
:10368000250000000024014000000000FF000000B1
:10369000FFFFFFFF00000000433A5C776F726B5C36
:1036A0006D6265645C6769746875622D6E65775CD0
:1036B0006C69627261726965735C6D6265645C7489
:1036C0006172676574735C68616C5C544152474514
:1036D000545F53544D5C5441524745545F4E5543DB
:1036E0004C454F5F4631303352425C616E616C6FC6
:1036F00067696E5F6170692E630000000200000060
:10370000004400400018000009000000003801409B
:1037100000180000160000000038014003180000E7
:103720001A00000000480040001800002A000000B5
:103730000048004005180000FF000000FFFFFFFFE9
:1037400000000000030000000044004000040000EE
:103750000A000000003801400004000017000000CB
:1037600000380140030400001B0000000048004036
:10377000000400002B000000004800400504000089
:10378000FF000000FFFFFFFF00000000433A5C77EE
:103790006F726B5C6D6265645C6769746875622DDD
:1037A0006E65775C6C69627261726965735C6D628B
:1037B00065645C746172676574735C68616C5C54A9
:1037C00041524745545F53544D5C54415247455410
:1037D0005F4E55434C454F5F4631303352425C7328
:1037E000657269616C5F6170692E63006F626A2D3A
:1037F0003E70696E20213D202850696E4E616D65D6
:10380000294E4300633A2F776F726B2F6D626564A8
:103810002F6275696C645C6D6265645C54415247EB
:1038200045545F4E55434C454F5F4631303352420D
:103830005C5441524745545F53544D5C5441524788
:1038400045545F4E55434C454F5F463130335242ED
:103850002F6770696F5F6F626A6563742E6800001E
:103860000000000001000000020000000400000051
:1038700008000000100014004000160000081A00A4
:1038800000031800000C1A00506F7274206E756DE2
:10389000626572206973206E6F7420636F72726547
:1038A00063742E00433A5C776F726B5C6D62656483
:1038B0005C6769746875622D6E65775C6C696272AD
:1038C00061726965735C6D6265645C746172676581
:1038D00074735C68616C5C5441524745545F535447
:1038E0004D5C5441524745545F4E55434C454F5FE4
:1038F0004631303352425C70696E6D61702E6300E8
:1039000070696E20213D202850696E4E616D6529D9
:103910004E430000433A5C776F726B5C6D62656486
:103920005C6769746875622D6E65775C6C6962723C
:1039300061726965735C6D6265645C746172676510
:1039400074735C68616C5C5441524745545F5354D6
:103950004D5C5441524745545F4E55434C454F5F73
:103960004631303352425C6770696F5F6170692E17
:1039700063000000DDDDDDDDDCBBBBDDDDDDDDDDCD
:10398000DDDDDDDD98888888888888887777777797
:103990007788888885555556666666666666666663
:1039A000666888888333333222222222222222220E
:1039B0002228888D00000000000000009F1E0008E3
:1039C0009F1E00089F1E00089F1E00089F1E0008E3
:1039D0009F1E000800000000811A0008000000007F
:1039E00000000000000000000000000000000000D7
:1039F0000000000000000000791B0008000000002B
:103A00000000000000000000A4FFFFFF0000000015
:103A1000911B0008851B000800000000000000004A
:103A20008D1B0008891B000800000000000000003A
:103A300000000000A51D000800000000A0FFFFFF1F
:103A40000000000000000000000000000000000076
:103A500000000000911B0008851B0008000000000A
:103A6000000000008D1B0008891B000800000000FA
:103A70001D1C0008000000009F1E00089F1E00087B
:103A8000FCFFFFFF0000000000000000000000003D
:103A900000000000000000009D1C00080000000065
:103AA00000000000000000009F1E00089F1E00088C
:103AB0009F1E00089F1E00089F1E00089F1E0008F2
:103AC00000000000F91C000800000000FCFFFFFFE0
:103AD000000000000000000000000000003B0008A3
:103AE000EC00002078000000A41E0008783B0008CD
:103AF0006401002054050000B41E0008B7C7FFFF92
:103B000000000000000000000000000000000000B5
:103B10000000000000000000020406080000000091
:103B20000102030401020304060708090000000063
:103B30000090D00300000000000000000102030418
:103B40000607080900000000000000000000000057
:103B50000000000000000000000000000000000065
:103B60000000000000000000000000000000000055
:083B700000000000000000004D
:04000005080000ED02
:00000001FF
